{
  "contractName": "HelloWord",
  "abi": [
    {
      "constant": false,
      "inputs": [],
      "name": "GetMessage",
      "outputs": [
        {
          "name": "",
          "type": "string"
        }
      ],
      "payable": false,
      "stateMutability": "nonpayable",
      "type": "function"
    },
    {
      "constant": true,
      "inputs": [
        {
          "name": "randomVal",
          "type": "uint256"
        }
      ],
      "name": "getOwnerBalance",
      "outputs": [
        {
          "name": "",
          "type": "uint256"
        }
      ],
      "payable": false,
      "stateMutability": "view",
      "type": "function"
    },
    {
      "constant": false,
      "inputs": [],
      "name": "sendMeEth",
      "outputs": [],
      "payable": true,
      "stateMutability": "payable",
      "type": "function"
    },
    {
      "constant": false,
      "inputs": [],
      "name": "sendMeEth",
      "outputs": [
        {
          "name": "",
          "type": "string"
        }
      ],
      "payable": false,
      "stateMutability": "nonpayable",
      "type": "constructor"
    },
    {
      "inputs": [],
      "payable": false,
      "stateMutability": "nonpayable",
      "type": "constructor"
    }
  ],
  "bytecode": "0x60606040526040805190810160405280600981526020017f48656c6c6f576f726400000000000000000000000000000000000000000000008152506001908051906020019061004f9291906100a0565b50341561005b57600080fd5b336000806101000a81548173ffffffffffffffffffffffffffffffffffffffff021916908373ffffffffffffffffffffffffffffffffffffffff160217905550610145565b828054600181600116156101000203166002900490600052602060002090601f016020900481019282601f106100e157805160ff191683800117855561010f565b8280016001018555821561010f579182015b8281111561010e5782518255916020019190600101906100f3565b5b50905061011c9190610120565b5090565b61014291905b8082111561013e576000816000905550600101610126565b5090565b90565b6102a8806101546000396000f300606060405260043610610057576000357c0100000000000000000000000000000000000000000000000000000000900463ffffffff16806303e33b531461005c578063590791f2146100ea5780639681a1b314610113575b600080fd5b341561006757600080fd5b61006f61011d565b6040518080602001828103825283818151815260200191508051906020019080838360005b838110156100af578082015181840152602081019050610094565b50505050905090810190601f1680156100dc5780820380516001836020036101000a031916815260200191505b509250505060405180910390f35b34156100f557600080fd5b6100fd6101c5565b6040518082815260200191505060405180910390f35b61011b610205565b005b610125610268565b60018054600181600116156101000203166002900480601f0160208091040260200160405190810160405280929190818152602001828054600181600116156101000203166002900480156101bb5780601f10610190576101008083540402835291602001916101bb565b820191906000526020600020905b81548152906001019060200180831161019e57829003601f168201915b5050505050905090565b60008060009054906101000a900473ffffffffffffffffffffffffffffffffffffffff1673ffffffffffffffffffffffffffffffffffffffff1631905090565b6000809054906101000a900473ffffffffffffffffffffffffffffffffffffffff1673ffffffffffffffffffffffffffffffffffffffff166108fc349081150290604051600060405180830381858888f19350505050151561026657600080fd5b565b6020604051908101604052806000815250905600a165627a7a72305820a0a9ead7bd3b6f08ba947b73e44448632a22ccfce3ccfd1e0be3ea978d5ac1a50029",
  "source": "pragma solidity ^0.4.17;\n\ncontract HelloWord {\n  address owner;\n  string message = \"HelloWord\";\n\n  function HelloWord() {\n    // constructor\n    owner = msg.sender;\n  }\n\n  function GetMessage() returns (string) {\n    return message;\n  }\n\n  function sendMeEth() payable {\n    owner.transfer(msg.value);\n  }\n\n  function getOwnerBalance() constant returns (uint) {\n    return owner.balance;\n  }\n\n}\n",
  "sourcePath": "/Users/evan/eth/truffle/HelloWord/contracts/HelloWord.sol",
  "compiler": {
    "name": "solc",
    "version": "0.4.18+commit.9cf6e910.Emscripten.clang"
  },
  "schemaVersion": "1.0.1",
  "updatedAt": "2017-12-20T07:53:53.306Z"
}